:100000000C9461000C9473000C9473000C947300B6
:100010000C9473000C9473000C9473000C94730094
:100020000C9473000C9473000C9473000C94730084
:100030000C9473000C9473000C9473000C94730074
:100040000C9420020C9473000C9473000C947300B5
:100050000C9473000C9473000C9473000C94730054
:100060000C9473000C94730000000000240027001F
:100070002A0000000000250028002B0000000008D6
:10008000000201000003040700000000000000005F
:1000900000000000230026002900040404040404D6
:1000A0000404020202020202030303030303010227
:1000B00004081020408001020408102001020408F6
:1000C000102011241FBECFEFD8E0DEBFCDBF21E04E
:1000D000A0E0B1E001C01D92A131B207E1F70E949A
:1000E000AF020C9403040C940000833081F028F4D8
:1000F000813099F08230A1F008958730A9F08830DE
:10010000B9F08430D1F4809180008F7D03C080915C
:1001100080008F7780938000089584B58F7702C028
:1001200084B58F7D84BD08958091B0008F7703C022
:100130008091B0008F7D8093B0000895CF93DF93BE
:10014000282F30E0F901E458FF4F8491F901E2557E
:10015000FF4FD491F901E656FF4FC491CC2391F0A3
:1001600081110E947500EC2FF0E0EE0FFF1FE057A9
:10017000FF4FA591B491EC91ED2381E090E021F443
:1001800080E002C080E090E0DF91CF9108951F935E
:10019000CF93DF93282F30E0F901E458FF4F84918B
:1001A000F901E255FF4FD491F901E656FF4FC49192
:1001B000CC23C1F0162F81110E947500EC2FF0E0C6
:1001C000EE0FFF1FEE58FF4FA591B4919FB7F89423
:1001D000111104C08C91D095D82302C0EC91DE2B74
:1001E000DC939FBFDF91CF911F910895CF93DF9351
:1001F00090E0FC01E255FF4F2491FC01E656FF4FD1
:100200008491882361F190E0880F991FFC01E859DF
:10021000FF4FC591D491FC01EE58FF4FA591B491C9
:10022000611109C09FB7F894888120958223888343
:10023000EC912E230BC0623061F49FB7F894888153
:10024000322F309583238883EC912E2B2C939FBFE4
:1002500006C08FB7F894E8812E2B28838FBFDF91DB
:10026000CF9108951F93CF93DF93182FEB0161E097
:100270000E94F600209711F460E004C0CF3FD10542
:1002800039F461E0812FDF91CF911F910C94C70069
:10029000E12FF0E0E458FF4FE491E330F9F048F447
:1002A000E130B9F0E230A1F584B5806284BDC8BD0B
:1002B00034C0E730E9F0E83019F1E43049F58091D5
:1002C0008000806280938000D0938B00C0938A006E
:1002D00024C084B5806884BDC7BD1FC080918000E4
:1002E000806880938000D0938900C093880015C0F7
:1002F0008091B00080688093B000C093B3000DC0BF
:100300008091B00080628093B000C093B40005C0BB
:10031000C038D1050CF0B5CFAFCFDF91CF911F9191
:10032000089560E070E08AE00E94320160E070E0D1
:100330008BE00E94320160E070E08CE00E943201AC
:1003400060E070E08DE00C9432010F931F9390E019
:10035000FC01E255FF4F6491FC01E656FF4FE4912A
:10036000F0E0EE0FFF1FE057FF4F8591949100E4FE
:1003700012E42FE030E0462F0E946A0261157105F9
:100380008105910549F0DC01CB010196A11DB11D4C
:10039000BC01CD019F7003C060E070E0CB011F91F4
:1003A0000F91089560E084E00E94C70083E090E030
:1003B0000197F1F761E084E00E94C70083E290E0DA
:1003C0000197F1F760E084E00E94C70085E00E9499
:1003D000A5012AE330E040E050E00E94C2032093F0
:1003E0000401309305014093060150930701C901B0
:1003F000089560E082E00E94C70083E090E00197EA
:10040000F1F761E082E00E94C70083E290E001978B
:10041000F1F760E082E00E94C70083E00E94A5013E
:100420002AE330E040E050E00E94C2032093000144
:10043000309301014093020150930301C9010895D3
:100440001F920F920FB60F9211242F933F938F9309
:100450009F93AF93BF9380910D0190910E01A09156
:100460000F01B091100130910C0123E0230F2D37C3
:1004700020F40196A11DB11D05C026E8230F0296A8
:10048000A11DB11D20930C0180930D0190930E01CD
:10049000A0930F01B0931001809108019091090180
:1004A000A0910A01B0910B010196A11DB11D80938D
:1004B000080190930901A0930A01B0930B01BF9129
:1004C000AF919F918F913F912F910F900FBE0F9001
:1004D0001F901895CF92DF92EF92FF920F931F9388
:1004E000E82FF92F05C0015011092109310961F1E7
:1004F000908196239417B9F305C001501109210981
:10050000310911F1908196239413F7CFC12CD12C8E
:10051000E12CF12C0AC08FEFC81AD80AE80AF80AB1
:100520000C151D052E053F0579F080818623841763
:1005300091F36C2D7D2D8E2D9F2D1F910F91FF908E
:10054000EF90DF90CF90089560E070E080E090E061
:100550001F910F91FF90EF90DF90CF9008957894C6
:1005600084B5826084BD84B5816084BD85B58260B8
:1005700085BD85B5816085BD80916E008160809369
:100580006E001092810080918100826080938100D2
:1005900080918100816080938100809180008160E2
:1005A000809380008091B10084608093B10080913D
:1005B000B00081608093B00080917A008460809365
:1005C0007A0080917A00826080937A0080917A002C
:1005D000816080937A0080917A00806880937A00AD
:1005E0001092C10061E084E00E94F60060E085E0C6
:1005F0000E94F60061E082E00E94F60060E083E085
:100600000E94F60060E08FE00E94F60060E08FE05C
:100610000E94F60061E08AE00E94F60061E08BE053
:100620000E94F60061E08CE00E94F60061E08DE03F
:100630000E94F600C0E0D0E08FB7F89440910D0121
:1006400050910E0160910F01709110018FBF0E94B7
:10065000D2010E94F9012FB7F89480910D01909179
:100660000E01A0910F01B09110012FBF8838934166
:10067000A105B10558F08FE00E949E00892B39F743
:100680008EE00E949E00892B31F0E1CF2097A1F2ED
:100690000E940000D1CF8091040190910501A091AA
:1006A0000601B09107018C389105A105B1056CF5E3
:1006B0008091000190910101A0910201B09103018C
:1006C0008D389105A105B10504F160E070E08AE084
:1006D0000E94320168EC70E08BE00E94320168EC0D
:1006E00070E08CE00E94320160E070E08DE00E94DA
:1006F00032010E94F9018C3891053CF70E94D20129
:100700008C38910514F70E94910180910401909119
:100710000501A0910601B09107018D389105A10551
:10072000B1050CF4A8CF8091000190910101A09136
:100730000201B09103018C389105A105B1050CF0BF
:100740009ACF68EC70E08AE00E94320160E070E0CD
:100750008BE00E94320160E070E08CE00E94320188
:1007600068EC70E08DE00E9432010E94F9018C3843
:1007700091053CF70E94D2018C38910514F70E9434
:10078000910179CF052E97FB1EF400940E94D903A6
:1007900057FD07D00E94E10307FC03D04EF40C94F0
:1007A000D90350954095309521953F4F4F4F5F4F5E
:1007B000089590958095709561957F4F8F4F9F4FCD
:1007C0000895A1E21A2EAA1BBB1BFD010DC0AA1F92
:1007D000BB1FEE1FFF1FA217B307E407F50720F0AA
:1007E000A21BB30BE40BF50B661F771F881F991F25
:1007F0001A9469F760957095809590959B01AC016E
:0A080000BD01CF010895F894FFCF69
:00000001FF
